{
  "address": "0x26566a22b6ae7aD5f1AA4e15d17794B78Bf370b4",
  "abi": [
    {
      "inputs": [
        {
          "internalType": "address",
          "name": "fundingRecipientAddress",
          "type": "address"
        }
      ],
      "stateMutability": "nonpayable",
      "type": "constructor"
    },
    {
      "inputs": [],
      "name": "NotOpenToWithdraw",
      "type": "error"
    },
    {
      "inputs": [
        {
          "internalType": "uint256",
          "name": "deadline",
          "type": "uint256"
        },
        {
          "internalType": "uint256",
          "name": "currentTimestamp",
          "type": "uint256"
        }
      ],
      "name": "TooEarly",
      "type": "error"
    },
    {
      "inputs": [
        {
          "internalType": "address",
          "name": "to",
          "type": "address"
        },
        {
          "internalType": "uint256",
          "name": "amount",
          "type": "uint256"
        }
      ],
      "name": "WithdrawTransferFailed",
      "type": "error"
    },
    {
      "anonymous": false,
      "inputs": [
        {
          "indexed": false,
          "internalType": "address",
          "name": "",
          "type": "address"
        },
        {
          "indexed": false,
          "internalType": "uint256",
          "name": "",
          "type": "uint256"
        }
      ],
      "name": "Contribution",
      "type": "event"
    },
    {
      "stateMutability": "payable",
      "type": "fallback"
    },
    {
      "inputs": [
        {
          "internalType": "address",
          "name": "",
          "type": "address"
        }
      ],
      "name": "balances",
      "outputs": [
        {
          "internalType": "uint256",
          "name": "",
          "type": "uint256"
        }
      ],
      "stateMutability": "view",
      "type": "function"
    },
    {
      "inputs": [],
      "name": "contribute",
      "outputs": [],
      "stateMutability": "payable",
      "type": "function"
    },
    {
      "inputs": [],
      "name": "deadline",
      "outputs": [
        {
          "internalType": "uint256",
          "name": "",
          "type": "uint256"
        }
      ],
      "stateMutability": "view",
      "type": "function"
    },
    {
      "inputs": [],
      "name": "execute",
      "outputs": [],
      "stateMutability": "nonpayable",
      "type": "function"
    },
    {
      "inputs": [],
      "name": "fundingRecipient",
      "outputs": [
        {
          "internalType": "contract FundingRecipient",
          "name": "",
          "type": "address"
        }
      ],
      "stateMutability": "view",
      "type": "function"
    },
    {
      "inputs": [],
      "name": "openToWithdraw",
      "outputs": [
        {
          "internalType": "bool",
          "name": "",
          "type": "bool"
        }
      ],
      "stateMutability": "view",
      "type": "function"
    },
    {
      "inputs": [],
      "name": "threshold",
      "outputs": [
        {
          "internalType": "uint256",
          "name": "",
          "type": "uint256"
        }
      ],
      "stateMutability": "view",
      "type": "function"
    },
    {
      "inputs": [],
      "name": "timeLeft",
      "outputs": [
        {
          "internalType": "uint256",
          "name": "",
          "type": "uint256"
        }
      ],
      "stateMutability": "view",
      "type": "function"
    },
    {
      "inputs": [],
      "name": "withdraw",
      "outputs": [],
      "stateMutability": "nonpayable",
      "type": "function"
    }
  ],
  "transactionHash": "0x1275fa9e2e81661289d589191bc330d56625f04fb5e669d36f0115651f06cdb9",
  "args": [
    "0x6DB0B2B494CA4dC77B88d221d5D5bA77841d4492"
  ],
  "numDeployments": 1,
  "solcInputHash": "318892a86607d53d8b54b5d6d34ea102",
  "bytecode": "0x608060405261000f42601e610062565b60035534801561001e57600080fd5b506040516104fc3803806104fc83398101604081905261003d91610089565b600080546001600160a01b0319166001600160a01b03929092169190911790556100b9565b8082018082111561008357634e487b7160e01b600052601160045260246000fd5b92915050565b60006020828403121561009b57600080fd5b81516001600160a01b03811681146100b257600080fd5b9392505050565b610434806100c86000396000f3fe6080604052600436106100865760003560e01c80633ccfd60b116100595780633ccfd60b1461013357806342cde4e8146101485780636146195414610164578063763418a714610179578063d7bb99ba1461008657610086565b80631300a6d1146100905780631bb534ba146100b857806327e235e3146100f057806329dcb0cf1461011d575b61008e6101a3565b005b34801561009c57600080fd5b506100a5610201565b6040519081526020015b60405180910390f35b3480156100c457600080fd5b506000546100d8906001600160a01b031681565b6040516001600160a01b0390911681526020016100af565b3480156100fc57600080fd5b506100a561010b36600461038c565b60016020526000908152604090205481565b34801561012957600080fd5b506100a560035481565b34801561013f57600080fd5b5061008e610225565b34801561015457600080fd5b506100a5670de0b6b3a764000081565b34801561017057600080fd5b5061008e6102d6565b34801561018557600080fd5b506002546101939060ff1681565b60405190151581526020016100af565b33600090815260016020526040812080543492906101c29084906103d2565b9091555050604080513381523460208201527f4d154d4aae216bed6d0926db77c00df2b57c6b5ba4eee05775de20facede3a7b910160405180910390a1565b600042600354116102125750600090565b4260035461022091906103eb565b905090565b60025460ff166102485760405163a6b765a760e01b815260040160405180910390fd5b33600081815260016020526040808220805490839055905190929083908381818185875af1925050503d806000811461029d576040519150601f19603f3d011682016040523d82523d6000602084013e6102a2565b606091505b50509050806102d25760405163dd2c9e2f60e01b8152336004820152602481018390526044015b60405180910390fd5b5050565b60035442116103055760035460405163e58369d160e01b815260048101919091524260248201526044016102c9565b670de0b6b3a7640000471061037d5760008054906101000a90046001600160a01b03166001600160a01b031663522e1177476040518263ffffffff1660e01b81526004016000604051808303818588803b15801561036257600080fd5b505af1158015610376573d6000803e3d6000fd5b5050505050565b6002805460ff19166001179055565b60006020828403121561039e57600080fd5b81356001600160a01b03811681146103b557600080fd5b9392505050565b634e487b7160e01b600052601160045260246000fd5b808201808211156103e5576103e56103bc565b92915050565b818103818111156103e5576103e56103bc56fea26469706673582212208df67022867f3a68d675e4891156bffe4e1d95f7d491deb2b88d88f8052e0b6664736f6c63430008140033",
  "devdoc": {
    "kind": "dev",
    "methods": {},
    "version": 1
  },
  "userdoc": {
    "errors": {
      "NotOpenToWithdraw()": [
        {
          "notice": "Errors //////"
        }
      ]
    },
    "events": {
      "Contribution(address,uint256)": {
        "notice": "Events /////"
      }
    },
    "kind": "user",
    "methods": {
      "constructor": {
        "notice": "Constructor ///"
      },
      "contribute()": {
        "notice": "Functions /////"
      },
      "fundingRecipient()": {
        "notice": "State Variables //"
      },
      "timeLeft()": {
        "notice": "View Functions /////"
      }
    },
    "version": 1
  },
  "storageLayout": {
    "storage": [
      {
        "astId": 22,
        "contract": "contracts/CrowdFund.sol:CrowdFund",
        "label": "fundingRecipient",
        "offset": 0,
        "slot": "0",
        "type": "t_contract(FundingRecipient)204"
      },
      {
        "astId": 26,
        "contract": "contracts/CrowdFund.sol:CrowdFund",
        "label": "balances",
        "offset": 0,
        "slot": "1",
        "type": "t_mapping(t_address,t_uint256)"
      },
      {
        "astId": 28,
        "contract": "contracts/CrowdFund.sol:CrowdFund",
        "label": "openToWithdraw",
        "offset": 0,
        "slot": "2",
        "type": "t_bool"
      },
      {
        "astId": 34,
        "contract": "contracts/CrowdFund.sol:CrowdFund",
        "label": "deadline",
        "offset": 0,
        "slot": "3",
        "type": "t_uint256"
      }
    ],
    "types": {
      "t_address": {
        "encoding": "inplace",
        "label": "address",
        "numberOfBytes": "20"
      },
      "t_bool": {
        "encoding": "inplace",
        "label": "bool",
        "numberOfBytes": "1"
      },
      "t_contract(FundingRecipient)204": {
        "encoding": "inplace",
        "label": "contract FundingRecipient",
        "numberOfBytes": "20"
      },
      "t_mapping(t_address,t_uint256)": {
        "encoding": "mapping",
        "key": "t_address",
        "label": "mapping(address => uint256)",
        "numberOfBytes": "32",
        "value": "t_uint256"
      },
      "t_uint256": {
        "encoding": "inplace",
        "label": "uint256",
        "numberOfBytes": "32"
      }
    }
  }
}